S00C00006D61696E2E7372656373
S11300000C942A000C9447000C9447000C9447006D
S11300100C9447000C9447000C9447000C94470040
S11300200C9447000C9447000C9447000C94470030
S11300300C9447000C9447000C9447000C94470020
S11300400C9447000C9447000C9447000C94470010
S11300500C94470011241FBECFE5D8E0DEBFCDBF0E
S113006011E0A0E6B0E0EAEBF4E102C005900D92E5
S1130070A63FB107D9F721E0A6EFB1E001C01D9278
S1130080AF3FB207E1F70E948E070C945B0A0C9411
S113009000000E9425078AEA90E00E94650660E05D
S11300A081E00C942F0780E00E941F088639910597
S11300B018F41092FE0103C081E08093FE01809148
S11300C0FE010895CF92DF92EF92FF920F931F9358
S11300D0CF93DF931092600010926100109262003F
S11300E010926300109264001092650010926600F2
S11300F01092670083E090E00E94B408C82F8093B8
S113010060001092610010926200109263001092DD
S1130110640010926500109266001092670082E0FD
S113012090E00E94B408E82F2C2F30E040E050E02B
S113013060E070E080E090E008E00E94EB09C32EEC
S1130140D42EE52EF62E072F182FD92FC22FCE2B03
S1130150C093600030936100409362005093630049
S113016060936400709365008093660090936700C9
S113017081E090E00E94B408E82F2C2F3C2D4D2DF7
S11301805E2D6F2D702F812F9D2F08E00E94EB09AB
S1130190C32ED42EE52EF62E072F182FD92FC22FBB
S11301A0CE2BC09360003093610040936200509363
S11301B0630060936400709365008093660090937D
S11301C0670080E090E00E94B408E82F2C2F3C2DBB
S11301D04D2D5E2D6F2D702F812F9D2F08E00E94D5
S11301E0EB09E22BE09360003093610040936200DE
S11301F0509363006093640070936500809366007D
S1130200909367000E945300DF91CF911F910F914B
S1130210FF90EF90DF90CF900C94490082E10E9410
S11302205008811116C08FE39CE90197F1F700C0D3
S1130230000082E10E945008811124C082E10E94E2
S113024050088823D9F38091FE018130D9F080E0F1
S1130250089583E10E945008811114C08FE39CE942
S11302600197F1F700C0000083E10E94500881115A
S113027009C083E10E9450088823D9F38091FE01CC
S1130280813011F082E0089581E00895CF93DF93E7
S1130290EB018130B9F460E080E00E942F0780E731
S11302A090E00E94650680E00E9454072FEF83EDE2
S11302B090E3215080409040E1F700C0000010928C
S11302C0FE0118C0811122C060E00E942F0784E85B
S11302D090E00E94650680E00E9437072FEF83EDCF
S11302E090E3215080409040E1F700C0000081E09D
S11302F08093FE0180E00E94710760E080E00E942C
S11303002F07CE01DF91CF910C946506DF91CF9139
S11303100895AF92BF92CF92DF92EF92FF920F9324
S11303201F93CF93DF930E9449001092F60110921D
S1130330F7011092F8011092F9011092FA0110924B
S1130340FB011092FC011092FD01D0E00E940E010D
S1130350823041F066E970E00E9446016D2F81E031
S11303600E942F070E940E05C82F843709F47FC00E
S1130370833699F41092F6011092F7011092F80165
S11303801092F9011092FA011092FB011092FC01F3
S11303901092FD010E944900D8CF80ED8C0F8A3065
S11303A0F0F58C2F0E9463062091F6013091F7013D
S11303B04091F8015091F9016091FA017091FB01AB
S11303C08091FC019091FD01EAE0AE2EB12CC12C8C
S11303D0D12CE12CF12C00E010E00E94BB08EC2FA2
S11303E0F0E0F0971F2F110F110B5F01C12ED12EDA
S11303F0E12EF12E012F0E94220A2093F601309360
S1130400F7014093F8015093F9016093FA01709356
S1130410FB018093FC019093FD01DF5F28C0CD3385
S113042031F5A090F601B090F701C090F801D0909A
S1130430F901E090FA01F090FB010091FC011091A8
S1130440FD01E1E020916000309161004091620083
S11304505091630060916400709165008091660022
S1130460909167000E94370A31F4E0E004C0D8306C
S113047009F06CCFD6CF8E2FDF91CF911F910F91C2
S1130480FF90EF90DF90CF90BF90AF9008952F92A0
S11304903F924F925F926F927F928F929F92AF9210
S11304A0BF92CF92DF92EF92FF920F931F93CF935D
S11304B0DF9300D0CDB7DEB70E94250786EA90E02F
S11304C00E94650660E081E00E942F071A8219826B
S11304D0912C812C712C612C512C412C312C212CF0
S11304E08A81883008F052C00E940E01823041F0A7
S11304F064EB70E00E9446016A8181E00E942F074C
S11305000E940E05898389818A33C0F589818033ED
S1130510A8F189810E9463068AE0A82EB12CC12C1F
S1130520D12CE12CF12C00E010E0292D382D472DA1
S1130530562D652D742D832D922D0E94BB085901D3
S11305406A017B018C01898190E0C097E92FEE0F4D
S1130550EE0B9C014E2F5E2F6E2F7E2F8E2F9E2F23
S11305600E94220A922E832E742E652E562E472E1A
S1130570382E292E8A818F5F8A83B2CF8981833670
S113058009F489C089818D3309F0AACF9092600063
S113059080926100709262006092630050926400E5
S11305A04092650030926600209267000E94250701
S11305B086EC90E00E946506692D80E090E00E9440
S11305C0AC08292D382D472D562D652D742D832DDE
S11305D0922D08E00E94060A122F332E2A013B01B5
S11305E04C01622F81E090E00E94AC08212F332D52
S11305F0A201B301C4010E94060A922E232E342EB6
S1130600452E562E672E782E892E0E940E01182F05
S1130610823021F068ED70E00E944601692D82E08D
S113062090E00E94AC08292D322D432D542D652DC8
S1130630762D872D982D08E00E94060A622F83E00C
S113064090E00E94AC082FEF89E698E121508040A9
S11306509040E1F700C00000123029F069EE70E02C
S1130660812F0E9446012FEF89E698E121508040B6
S11306709040E1F700C000000E9425078EEF90E053
S11306800E9465062FEF84E39CE021508040904057
S1130690E1F700C000000F900F90DF91CF911F9100
S11306A00F91FF90EF90DF90CF90BF90AF909F900D
S11306B08F907F906F905F904F903F902F90089510
S11306C08F929F92AF92BF92CF92DF92EF92FF925E
S11306D00F931F93CF93DF9300D000D0CDB7DEB735
S11306E01C821B821A8219820E94250783E091E0F2
S11306F00E946506D12C08EE13E086E0E82EF12C6A
S11307008B819C818436910508F0F3C01A8219828A
S113071089819A814E9708F0E6C00E940E018230CA
S113072021F063E071E00E9446010E940E058437C7
S113073009F4B2C08F3239F40E9447020E9425079F
S113074083E091E03BC08A32E1F48091FE018111A3
S113075011C00E94370781E08093FE012FEF83EDE3
S113076090E3215080409040E1F700C0000080E019
S11307700E94710760E081E00E942F0784E191E00C
S11307800CC08D3281F58091FE0181111AC060E0A8
S113079081E00E942F0786E391E00E9465062FEF17
S11307A089E698E1215080409040E1F700C00000C4
S11307B060E081E00E942F0780E291E00E946506DC
S11307C06BC080E00E9454071092FE012FEF83ED6E
S11307D090E3215080409040E1F700C0000080E0A9
S11307E00E947107D4CF8B32A9F58091FE0181114B
S11307F010C060E081E00E942F0786E391E00E9430
S113080065062FEF83ED90E3215080409040E1F79F
S1130810D8C080E00E9454071092FE012FEF83EDB0
S113082090E3215080409040E1F700C0000080E058
S11308300E94710760E081E00E942F0786E391E047
S11308400E9465062FEF89E698E121508040904090
S1130850E1F7B7C08D3301F5DD20F1F00E942507E3
S113086082E491E00E9465060E940E05C82E0E9453
S11308700E01823029F066E271E00E94460106C052
S11308802DE2C21619F08BE2C812EECF0E942507A2
S11308901C830B83FA82E9828B819C81863B934083
S11308A0B1F48091FE01813091F460E080E00E9417
S11308B02F0784E591E00E94650660E081E00E94D4
S11308C02F0788E691E00E946506DD24D3948FEC1F
S11308D097E00197F1F700C0000089819A810196A1
S11308E09A83898315CF8B819C8101969C838B830A
S11308F007CF8091FE01813009F065C00E94250771
S11309008AE791E00E94650660E081E00E942F077B
S11309108BE891E00E9465068AE090E09A838983DF
S113092029813A818091FE01232B49F1813039F5E7
S11309300E940E01823021F061E971E00E944601BB
S113094065E081E00E942F0789809A80940140E04D
S113095050E060E070E080E090E00E94780680E281
S11309600E9463069FEF29E688E191502040804071
S1130970E1F700C0000089819A810197CFCF8130CF
S113098011F580E00E9454071092FE019FEF23EDC1
S113099080E3915020408040E1F700C0000080E0F7
S11309A00E94710760E081E00E942F0786E391E0D6
S11309B00E9465069FEF24E38CE091502040804024
S11309C0E1F700C000000F900F900F900F90DF919F
S11309D0CF911F910F91FF90EF90DF90CF90BF9038
S11309E0AF909F908F9008950F931F93CF93DF93B1
S11309F00091C4011091C601C12F8091C701D82F65
S1130A008C2F811B801728F461E089910E942B08A8
S1130A10F7CFDF91CF911F910F9108952F923F92BD
S1130A204F925F926F927F928F929F92AF92BF92FA
S1130A30CF92DF92EF92FF920F931F93CF93DF93A6
S1130A406090C4015090C501E090C601F090C701C8
S1130A508090C8019090C901462C450C712C84E704
S1130A60282EA62CB12C7614E0F56701C70CD11CF6
S1130A7060E0F60180810E942B08362C341450F576
S1130A80C32DD0E087010C0F1D1FF80180810E9447
S1130A90500881111DC08FE295E70197F1F700C05E
S1130AA00000F80180810E945008811111C0F801F2
S1130AB080810E9450088823D1F3CA19DB09C4013C
S1130AC0759C800D911D1124C80FD91F288002C068
S1130AD03394D4CF61E0F60180810E942B08739493
S1130AE0C2CF822DDF91CF911F910F91FF90EF9094
S1130AF0DF90CF90BF90AF909F908F907F906F903A
S1130B005F904F903F902F900895CF93C82F60E04F
S1130B1089E10E942B086C2F661F6627661F8EE1F1
S1130B200E942B08C6FB662760F98DE10E942B0802
S1130B30C5FB662760F98CE10E942B08C4FB66277D
S1130B4060F98BE10E942B0861E08AE10E942B0886
S1130B508FEC97E00197F1F700C0000060E08AE1B4
S1130B600E942B088FEC97E00197F1F700C000007A
S1130B70C3FB662760F98EE10E942B08C2FB66273F
S1130B8060F98DE10E942B08C1FB662760F98CE1B6
S1130B900E942B086C2F61708BE10E942B0861E08E
S1130BA08AE10E942B088FEC97E00197F1F700C0CF
S1130BB0000060E08AE10E942B088FEC97E0019727
S1130BC0F1F700C00000CF910895CF93C82F61E0E2
S1130BD089E10E942B086C2F661F6627661F8EE131
S1130BE00E942B08C6FB662760F98DE10E942B0842
S1130BF0C5FB662760F98CE10E942B08C4FB6627BD
S1130C0060F98BE10E942B0861E08AE10E942B08C5
S1130C108FEC97E00197F1F700C0000060E08AE1F3
S1130C200E942B088FEC97E00197F1F700C00000B9
S1130C30C3FB662760F98EE10E942B08C2FB66277E
S1130C4060F98DE10E942B08C1FB662760F98CE1F5
S1130C500E942B086C2F61708BE10E942B0861E0CD
S1130C608AE10E942B088FEC97E00197F1F700C00E
S1130C70000060E08AE10E942B088FEC97E0019766
S1130C80F1F700C00000CF9108952FE788E391E0C9
S1130C90215080409040E1F700C0000082E00E94B3
S1130CA0850588E20E9485058CE00E94850581E027
S1130CB00E9485058FEC97E00197F1F700C00000D2
S1130CC086E00C9485050C94E5050F931F93CF9350
S1130CD08C01C0E0F801EC0FF11D8081882321F024
S1130CE00E94E505CF5FF6CFCF911F910F91089534
S1130CF02F923F924F925F926F927F928F929F9228
S1130D00AF92BF92CF92DF92EF92FF920F931F9315
S1130D10CF93DF93CDB7DEB72E970FB6F894DEBF2F
S1130D200FBECDBF29013A014B011C01A0E00E9476
S1130D30400AD9F480E32E960FB6F894DEBF0FBEB6
S1130D40CDBFDF91CF911F910F91FF90EF90DF9076
S1130D50CF90BF90AF909F908F907F906F905F9057
S1130D604F903F902F900C94E505A0E00E94400A1C
S1130D706CF48DE20E94E5059201A301B401C10166
S1130D800E94A40929013A014B011C011B868B8591
S1130D908F5F8C87E1E0F0E0EC0FFD1F2B85E20F05
S1130DA0F11D27FDFA95FE87ED878AE0A82EB12C68
S1130DB0C12CD12CE12CF12C00E010E09201A30114
S1130DC0B401C1010E941409205DED85FE852083D4
S1130DD09201A301B401C1010E94160929013A013B
S1130DE04B011C01A0E00E94400A19F02C852B87BE
S1130DF0CECF9B8597FD10C0E1E0F0E0EC0FFD1F26
S1130E002B85E20FF11D27FDFA9580810E94E505EF
S1130E108B8581508B87EDCF2E960FB6F894DEBF6D
S1130E200FBECDBFDF91CF911F910F91FF90EF9037
S1130E30DF90CF90BF90AF909F908F907F906F90F6
S1130E405F904F903F902F90089581E00E94850518
S1130E508FEC97E00197F1F700C00000089581112D
S1130E6002C080E801C080EC860F0C948505CF9306
S1130E70DF93880FC82FD0E08091DC0190E0880FC9
S1130E80991FC817D90764F4C652DE4F61E0888100
S1130E900E942B0860E089810E942B0885E501C02F
S1130EA08AEADF91CF910895CF93DF93880FC82FFB
S1130EB0D0E08091DC0190E0880F991FC817D90712
S1130EC064F4C652DE4F60E088810E942B0861E022
S1130ED089810E942B0885E501C08AEADF91CF91C0
S1130EE00895CF93DF93880FC82FD0E08091DC0161
S1130EF090E0880F991FC817D90764F4C652DE4FD3
S1130F0060E088810E942B0860E089810E942B08A0
S1130F1085E501C08AEADF91CF9108950E946708B0
S1130F200E9445060E94F40466E081E00E941108D4
S1130F300E946200C0E00E948901882309F456C01F
S1130F40C230C9F060E081E00E942F078DED91E08E
S1130F500E9465062FEF84E39CE02150804090407E
S1130F60E1F700C0000060E081E00E942F0786E204
S1130F7091E00E946506CF5FC330E9F60E94250721
S1130F8087EE91E00E94650685E0E82EF12C00E0F2
S1130F9010E0D0E0C0E0C12CD12C0E940E018230C0
S1130FA0D9F468E080E00E942F079701A8016D2F13
S1130FB07C2FC6010E9478069CE3A92EB12C2FEF4A
S1130FC080E792E0215080409040E1F700C00000AB
S1130FD00E940E01823029F06AEA70E00E94460104
S1130FE0A9CF21E0A21AB10851F703C00E946003FF
S1130FF0A1CF9701A8016D2F7C2FC601A1E00E940B
S1131000400A09F497CF9701A8016D2F7C2FC601E0
S1131010AFEF0E942B0A79018A01D62FC72F6C01EA
S1131020BCCF27B12F7330E4839FC0011124822BDE
S113103087B986B1887F682B66B9379A089597B1C6
S1131040907E97B997B1892B87B9369A3699FECF96
S113105084B195B10895E82FE695E695E695F0E01C
S11310609F01220F331FE20FF31FF096282F2770E2
S1131070662359F0613099F481E090E001C0880F53
S11310802A95EAF79281892B09C081E090E001C09A
S1131090880F2A95EAF7809592818923828308959F
S11310A0282F26952695269530E0A901440F551F33
S11310B0FA01E20FF31F20A930E08770A90102C0F2
S11310C0559547958A95E2F7CA0181700895A4EA77
S11310D0B1E040E021E030E09D91E42FE695E69513
S11310E0E695F0E0BF01660F771FE60FF71FF09655
S11310F0842F8770913091F0E8F0923049F5B9016E
S113110002C0660F771F8A95E2F7CB01962F909560
S11311105181952391839281892B19C0B90102C011
S1131120660F771F8A95E2F7CB018095918198230A
S113113091830BC0B90102C0660F771F8A95E2F74D
S1131140CB019181982B918380959281892382830D
S11311504F5F403209F60895E199FECF9FBB8EBBE5
S11311606DBBE29AE19A0895E199FECF9FBB8EBBD5
S1131170E09A8DB30895DF93CF931F930F939A9DB5
S1131180F02D219FF00D8B9DF00D8A9DE02DF10D2A
S1131190039FF00D029FE00DF11D4E9DE00DF11D2A
S11311A05E9DF00D4F9DF00D7F936F93BF92AF92B4
S11311B05F934F93D5010E944C0A8B01AC01D70178
S11311C00E944C0AEB01E80FF91FD6010E940B099B
S11311D02F913F91D6010E944C0AC60FD71FE81FDA
S11311E0F91FAF91BF910E940B092F913F910E946B
S11311F04C0AC60FD71FE81FF91FD6010E944C0ADC
S1131200E60FF71F9801BE01CF0111240F911F9122
S1131210CF91DF9108950E944C0A460F571FC81FB3
S1131220D91F08F431960895689401C0E894F92F01
S1131230F12B12F00C944809A0E0B0E0E2E2F9E0EE
S11312400C94BA09092E059422F40E94A4091123CE
S113125092F4F0E80F26FFEFE094F09400951095D7
S1131260B094C094D094A194BF0ACF0ADF0AEF0AC5
S1131270FF0A0F0B1F0B0E94530907FC0E94A409CD
S1131280CDB7DEB7ECE00C94D609689401C0E894BD
S11312908F929F92CF93DF930E945309DF91CF9156
S11312A09F908F90089588249924F401E401B0E478
S11312B09F93AA279A158B049C04ED05FE05CF0580
S11312C0D007A10798F4AD2FDC2FCF2FFE2FE92DE7
S11312D0982C892E982F872F762F652F542F432FE4
S11312E0322F2227B85031F7BF9127C01B2EBF9150
S11312F0BB27220F331F441F551F661F771F881FEC
S1131300991F881C991CEE1FFF1FCC1FDD1FAA1FED
S1131310BB1F8A149B04EC05FD05CE05DF05A00761
S1131320B10748F08A189B08EC09FD09CE09DF09CA
S1131330A00BB10B21601A94E1F62EF49401AF01D5
S1131340BE01CD01000C089560957095809590952F
S113135030954095509521953F4F4F4F5F4F6F4FBC
S11313607F4F8F4F9F4F08952F923F924F925F92DE
S11313706F927F928F929F92AF92BF92CF92DF92A1
S1131380EF92FF920F931F93CF93DF93CDB7DEB706
S1131390CA1BDB0B0FB6F894DEBF0FBECDBF09949A
S11313A02A88398848885F846E847D848C849B84F1
S11313B0AA84B984C884DF80EE80FD800C811B81FF
S11313C0AA81B981CE0FD11D0FB6F894DEBF0FBE2E
S11313D0CDBFED0108950F93083090F0982F872F1B
S11313E0762F652F542F432F322F22270850F4CF06
S11313F0220F331F441F551F661F771F881F991F15
S11314000A95B2F70F91089597FB10F81694000807
S11314100F93083098F00850232F342F452F562F60
S1131420672F782F892F902DF4CF05949795879562
S11314307795679557954795379527950A95AAF710
S11314400F9108952A0D3B1D4C1D5D1D6E1D7F1DC2
S1131450801F911F08950024A7FD00942A0F301DBA
S1131460401D501D601D701D801D901D08952A157E
S11314703B054C055D056E057F05800791070895C2
S11314800024A7FD00942A17300540055005600587
S11314907005800590050895A29FB001B39FC00117
S11314A0A39F700D811D1124911DB29F700D811D8C
S10D14B01124911D0895F894FFCF54
S11314BA641900000000000014151617020304053D
S11314CA646F6F7220636C6F736520212120202062
S11314DA20202000646F6F72206F70656E202121B6
S11314EA20202020200070617373776F72643A2081
S11314FA2020202020006E65772070617373776F37
S113150A72643A006E65772070617373776F7264E0
S113151A3A2020202000736176696E672070617317
S113152A73776F72642E2E00636F6E206E65772058
S113153A50617373776F726400736176696E6720A2
S113154A70617373776F72642E2E20202000646F8B
S113155A6E650073656C656374206F7074696F6E71
S113156A20202000646F6F72206F70656E656400BE
S113157A202020202020202020202020202020205D
S113158A202020202000646F6F7220636C6F7365C3
S113159A6400282D206F72202B2920746F20636C1D
S11315AA6F736500646F6F722077696C6C20626573
S11315BA20636C6F736564007072657373203D20D9
S11315CA746F2063616E63656C0074656E20736565
S11315DA6320746F20636C6F73650074696D653A78
S11315EA0074656E2073656320746F20636C6F7377
S11315FA6520200001010202020201010101010128
S113160A01010101000002020000000001000000C3
S113161A0000000104046800CA013738392F343540
S113162A362A3132332D63303D2B1011017472790D
S113163A20616761696E00626C6F636B6564203553
S109164A204D494E000092
S9030000FC
